:020000040800F2
:1000000000500020F94C0008AD170008AF17000899
:10001000B1170008B3170008B5170008000000006A
:10002000000000000000000000000000B7170008FA
:10003000B917000800000000BB170008BD17000832
:10004000414D0008414D0008414D0008414D000858
:10005000414D0008414D0008414D0008414D000848
:10006000414D0008414D0008414D0008414D000838
:10007000414D0008414D0008414D0008414D000828
:10008000414D0008414D0008414D0008414D000818
:10009000414D0008414D0008414D0008414D000808
:1000A000414D0008414D0008414D0008414D0008F8
:1000B000414D0008414D0008414D0008C51700089A
:1000C000414D0008414D0008414D0008414D0008D8
:1000D000414D0008D5170008414D0008414D00086A
:1000E000414D0008414D0008414D0008000000004E
:1000F0000000000000000000000000000000000000
:0C01000000000000000000005FF808F1A3
:10011000034613F8012B002AFBD1181A0138704747
:100120004FF0FF0C1CEAD0521EBF1CEAD15392EADA
:100130000C0F93EA0C0F6FD01A4480EA010C4002B6
:1001400018BF5FEA41211ED04FF0006343EA501010
:1001500043EA5111A0FB01310CF00040B1F5000F52
:100160003EBF490041EAD3715B0040EA010062F101
:100170007F02FD2A1DD8B3F1004F40EBC25008BFEB
:1001800020F00100704790F0000F0CF0004C08BF09
:1001900049024CEA502040EA51207F3AC2BFD2F1D6
:1001A000FF0340EAC250704740F400004FF00003E4
:1001B000013A5DDC12F1190FDCBF00F0004070471E
:1001C000C2F10002410021FA02F1C2F1200200FA5C
:1001D00002FC5FEA310040F1000053EA4C0308BF23
:1001E00020EADC70704792F0000F00F0004C02BF74
:1001F000400010F4000F013AF9D040EA0C0093F0EF
:10020000000F01F0004C02BF490011F4000F013B48
:10021000F9D041EA0C018FE70CEAD15392EA0C0FB6
:1002200018BF93EA0C0F0AD030F0004C18BF31F021
:10023000004CD8D180EA010000F00040704790F0F7
:10024000000F17BF90F0004F084691F0000F91F09B
:10025000004F14D092EA0C0F01D142020FD193EA61
:100260000C0F03D14B0218BF084608D180EA0100E9
:1002700000F0004040F0FE4040F40000704740F0C5
:10028000FE4040F44000704781F0004102E000BFB2
:1002900083F0004330B54FEA41044FEA430594EA46
:1002A000050F08BF90EA020F1FBF54EA000C55EA81
:1002B000020C7FEA645C7FEA655C00F0E2804FEA52
:1002C0005454D4EB5555B8BF6D420CDD2C4480EA34
:1002D000020281EA030382EA000083EA010180EA64
:1002E000020281EA0303362D88BF30BD11F0004FB2
:1002F0004FEA01314FF4801C4CEA113102D04042E8
:1003000061EB410113F0004F4FEA03334CEA133322
:1003100002D0524263EB430394EA050F00F0A7803A
:10032000A4F10104D5F1200E0DDB02FA0EFC22FA35
:1003300005F2801841F1000103FA0EF2801843FA29
:1003400005F359410EE0A5F120050EF1200E012A1A
:1003500003FA0EFC28BF4CF0020C43FA05F3C01858
:1003600051EBE37101F0004507D54FF0000EDCF1D1
:10037000000C7EEB00006EEB0101B1F5801F1BD37A
:10038000B1F5001F0CD349085FEA30004FEA3C0C7E
:1003900004F101044FEA445212F5800F80F09A8074
:1003A000BCF1004F08BF5FEA500C50F1000041EB78
:1003B000045141EA050130BD5FEA4C0C404141EB7C
:1003C0000101013C28BFB1F5801FE9D291F0000F77
:1003D00004BF01460020B1FA81F308BF2033A3F126
:1003E0000B03B3F120020CDA0C3208DD02F1140C1D
:1003F000C2F10C0201FA0CF021FA02F10CE002F158
:100400001402D8BFC2F1200C01FA02F120FA0CFC50
:10041000DCBF41EA0C019040E41AA2BF01EB045199
:10042000294330BD6FEA04041F3C1CDA0C340EDC97
:1004300004F11404C4F1200220FA04F001FA02F3DA
:1004400040EA030021FA04F345EA030130BDC4F198
:100450000C04C4F1200220FA02F001FA04F340EA8D
:100460000300294630BD21FA04F0294630BD94F03E
:10047000000F83F4801306BF81F480110134013D25
:100480004EE77FEA645C18BF7FEA655C29D094EA96
:10049000050F08BF90EA020F05D054EA000C04BF14
:1004A0001946104630BD91EA030F1EBF00210020FF
:1004B00030BD5FEA545C05D14000494128BF41F09E
:1004C000004130BD14F580043CBF01F5801130BD02
:1004D00001F0004545F0FE4141F470014FF000008D
:1004E00030BD7FEA645C1ABF194610467FEA655C3E
:1004F0001CBF0B46024650EA013406BF52EA0335E0
:1005000091EA030F41F4002130BD00BF90F0000FCD
:1005100004BF0021704730B54FF4806404F1320409
:100520004FF000054FF0000150E700BF90F0000FC2
:1005300004BF0021704730B54FF4806404F13204E9
:1005400010F0004548BF40424FF000013EE700BFB9
:1005500042004FEAE2014FEA31014FEA02701FBF49
:1005600012F07F4393F07F4F81F06051704732F07B
:100570007F4208BF704793F07F4F04BF41F40021D2
:10058000704730B54FF4607401F0004521F0004130
:100590001CE700BF50EA010208BF704730B54FF0BA
:1005A00000050AE050EA010208BF704730B511F0BB
:1005B000004502D5404261EB41014FF4806404F1F3
:1005C00032045FEA915C3FF4D8AE4FF003025FEA79
:1005D000DC0C18BF03325FEADC0C18BF033202EBFD
:1005E000DC02C2F1200300FA03FC20FA02F001FA57
:1005F00003FE40EA0E0021FA02F11444BDE600BFFA
:1006000070B54FF0FF0C4CF4E06C1CEA11541DBFA8
:100610001CEA135594EA0C0F95EA0C0F00F0DEF873
:100620002C4481EA030621EA4C5123EA4C5350EA58
:10063000013518BF52EA033541F4801143F48013A9
:1006400038D0A0FB02CE4FF00005E1FB02E506F03A
:100650000042E0FB03E54FF00006E1FB03569CF08F
:10066000000F18BF4EF0010EA4F1FF04B6F5007F95
:1006700064F5407404D25FEA4E0E6D4146EB060607
:1006800042EAC62141EA55514FEAC52040EA5E5090
:100690004FEACE2EB4F1FD0C88BFBCF5E06F1ED83A
:1006A000BEF1004F08BF5FEA500E50F1000041EB71
:1006B000045170BD06F0004646EA010140EA02001E
:1006C00081EA0301B4EB5C04C2BFD4EB0C0541EA40
:1006D000045170BD41F480114FF0000E013C00F355
:1006E000AB8014F1360FDEBF002001F0004170BD79
:1006F000C4F10004203C35DA0C341BDC04F1140492
:10070000C4F1200500FA05F320FA04F001FA05F21D
:1007100040EA020001F0004221F0004110EBD370EA
:1007200021FA04F642EB06015EEA430E08BF20EA16
:10073000D37070BDC4F10C04C4F1200500FA04F3B9
:1007400020FA05F001FA04F240EA020001F000414B
:1007500010EBD37041F100015EEA430E08BF20EABE
:10076000D37070BDC4F1200500FA05F24EEA020E06
:1007700020FA04F301FA05F243EA020321FA04F035
:1007800001F0004121FA04F220EA020000EBD370EC
:100790005EEA430E08BF20EAD37070BD94F0000FEC
:1007A0000FD101F00046400041EB010111F4801F20
:1007B00008BF013CF7D041EA060195F0000F18BFD1
:1007C000704703F00046520043EB030313F4801F0D
:1007D00008BF013DF7D043EA0603704794EA0C0FC7
:1007E0000CEA135518BF95EA0C0F0CD050EA4106DD
:1007F00018BF52EA4306D1D181EA030101F000415A
:100800004FF0000070BD50EA410606BF1046194681
:1008100052EA430619D094EA0C0F02D150EA01368D
:1008200013D195EA0C0F05D152EA03361CBF1046CE
:1008300019460AD181EA030101F0004141F0FE416D
:1008400041F470014FF0000070BD41F0FE4141F4F1
:10085000780170BD70B54FF0FF0C4CF4E06C1CEAF1
:1008600011541DBF1CEA135594EA0C0F95EA0C0FA6
:1008700000F0A7F8A4EB050481EA030E52EA033561
:100880004FEA013100F088804FEA03334FF0805582
:1008900045EA131343EA12634FEA022245EA1115AF
:1008A00045EA10654FEA00260EF000419D4208BF60
:1008B000964244F1FD0404F5407402D25B084FEA0D
:1008C0003202B61A65EB03055B084FEA32024FF4B9
:1008D00080104FF4002CB6EB020E75EB030E22BF16
:1008E000B61A754640EA0C005B084FEA3202B6EBD6
:1008F000020E75EB030E22BFB61A754640EA5C0085
:100900005B084FEA3202B6EB020E75EB030E22BF14
:10091000B61A754640EA9C005B084FEA3202B6EB15
:10092000020E75EB030E22BFB61A754640EADC00D4
:1009300055EA060E18D04FEA051545EA16754FEA36
:1009400006164FEAC30343EA52734FEAC2025FEA54
:100950001C1CC0D111F4801F0BD141EA00014FF0E3
:1009600000004FF0004CB6E711F4801F04BF0143B4
:100970000020B4F1FD0C88BFBCF5E06F3FF6AFAED0
:10098000B5EB030C04BFB6EB020C5FEA500C50F160
:10099000000041EB045170BD0EF0004E4EEA1131E3
:1009A00014EB5C04C2BFD4EB0C0541EA045170BDEA
:1009B00041F480114FF0000E013C90E645EA060E2E
:1009C0008DE60CEA135594EA0C0F08BF95EA0C0F5C
:1009D0003FF43BAF94EA0C0F0AD150EA01347FF4A4
:1009E00034AF95EA0C0F7FF425AF104619462CE77B
:1009F00095EA0C0F06D152EA03353FF4FDAE1046DE
:100A0000194622E750EA410618BF52EA43067FF42E
:100A1000C5AE50EA41047FF40DAF52EA43057FF4BE
:100A2000EBAE12E74FF0FF3C06E000BF4FF0010CC9
:100A300002E000BF4FF0010C4DF804CD4FEA410C2D
:100A40007FEA6C5C4FEA430C18BF7FEA6C5C1BD0FA
:100A500001B050EA410C0CBF52EA430C91EA030F7B
:100A600002BF90EA020F0020704710F1000F91EAD8
:100A7000030F58BF994208BF90422CBFD8176FEAA6
:100A8000E37040F0010070474FEA410C7FEA6C5C74
:100A900002D150EA013C07D14FEA430C7FEA6C5C7B
:100AA000D6D152EA033CD3D05DF8040B704700BFA7
:100AB0008446104662468C461946634600E000BFF5
:100AC00001B5FFF7B7FF002848BF10F1000F01BDC7
:100AD0004DF808EDFFF7F4FF0CBF012000205DF892
:100AE00008FB00BF4DF808EDFFF7EAFF34BF012017
:100AF00000205DF808FB00BF4DF808EDFFF7E0FFB0
:100B000094BF012000205DF808FB00BF4DF808ED00
:100B1000FFF7CEFF94BF012000205DF808FB00BF67
:100B20004DF808EDFFF7C4FF34BF012000205DF849
:100B300008FB00BF4FEA410C7FEA6C5C02D150EA2F
:100B4000013C0AD14FEA430C7FEA6C5C02D152EAC5
:100B5000033C02D14FF0000070474FF00100704796
:100B60004FEA410212F5001215D211D56FF47873D5
:100B7000B3EB625212D94FEAC12343F0004343EA78
:100B8000505311F0004F23FA02F018BF4042704753
:100B90004FF00000704750EA013005D111F00040DD
:100BA00008BF6FF0004070474FF00000704700BF73
:100BB00080F0004002E000BF81F0004142001FBF12
:100BC0005FEA410392EA030F7FEA226C7FEA236C1B
:100BD0006AD04FEA1262D2EB1363C1BFD218414010
:100BE00048404140B8BF5B42192B88BF704710F0A6
:100BF000004F40F4000020F07F4018BF404211F049
:100C0000004F41F4000121F07F4118BF494292EAB0
:100C1000030F3FD0A2F1010241FA03FC10EB0C00DC
:100C2000C3F1200301FA03F100F0004302D5494269
:100C300060EB4000B0F5000F13D3B0F1807F06D316
:100C400040084FEA310102F10102FE2A51D2B1F10E
:100C5000004F40EBC25008BF20F0010040EA030003
:100C60007047490040EB0000013A28BFB0F5000F83
:100C7000EDD2B0FA80FCACF1080CB2EB0C0200FA39
:100C80000CF0AABF00EBC25052421843BCBFD04088
:100C90001843704792F0000F81F4000106BF80F402
:100CA00000000132013BB5E74FEA41037FEA226CC5
:100CB00018BF7FEA236C21D092EA030F04D092F090
:100CC000000F08BF0846704790EA010F1CBF0020C4
:100CD000704712F07F4F04D1400028BF40F0004021
:100CE000704712F100723CBF00F50000704700F041
:100CF000004343F0FE4040F4000070477FEA226268
:100D000016BF08467FEA23630146420206BF5FEA38
:100D1000412390EA010F40F4800070474FF0000338
:100D200004E000BF10F0004348BF40425FEA000CFF
:100D300008BF704743F0964301464FF000001CE0A7
:100D400050EA010208BF70474FF000030AE000BFFD
:100D500050EA010208BF704711F0004302D540423B
:100D600061EB41015FEA010C02BF844601460020AD
:100D700043F0B64308BFA3F18053A3F50003BCFAC8
:100D80008CF2083AA3EBC25310DB01FA02FC634475
:100D900000FA02FCC2F12002BCF1004F20FA02F27C
:100DA00043EB020008BF20F00100704702F120026F
:100DB00001FA02FCC2F1200250EA4C0021FA02F2D0
:100DC00043EB020008BF20EADC70704710B5054C09
:100DD000237833B9044B13B10448AFF300800123E7
:100DE000237010BDD801002000000000B879000871
:100DF00008B5034B1BB103490348AFF3008008BD9E
:100E000000000000DC010020B8790008032803D8A6
:100E1000DFE800F00A0406080448704704487047F9
:100E2000044870470448704704487047FC7900083C
:100E3000D8790008E4790008F0790008D079000832
:100E400010B51F4B5C6A21461E4804F0B1FC002C13
:100E500019DB14F0804F1AD114F0005F1BD114F08D
:100E6000805F1CD114F0006F1DD114F0806F1ED173
:100E7000B4F1806F1FD3144804F002FD134B01221C
:100E8000C3F8E02410BD124804F092FCE1E71148D9
:100E900004F08EFCE0E7104804F08AFCDFE70F481E
:100EA00004F086FCDEE70E4804F082FCDDE70D4826
:100EB00004F07EFCDCE70C4804F07AFCDBE700BFC2
:100EC00000100240047A0008647A000800004242E0
:100ED0001C7A0008287A0008307A0008387A00085E
:100EE000407A0008487A0008507A000870B5054634
:100EF0000E4614460146284804F05AFC202D24D002
:100F00003DB3E02D29D0254804F052FC012E28D015
:100F1000234A3146234804F04BFC2146224804F082
:100F200047FC04B314F0200F21D114F0040F22D198
:100F300014F0010F23D114F0020F24D114F0080F84
:100F400025D11A4804F09CFC70BD194804F030FC0F
:100F5000DCE7184804F02CFCD8E7174804F028FC1C
:100F6000D4E7164AD5E7164804F022FCE9E715480D
:100F700004F01EFCD9E7144804F01AFCD8E7134823
:100F800004F016FCD7E7124804F012FCD6E711482B
:100F900004F00EFCD5E700BF9C7A0008C87A000870
:100FA00094800008D47A0008E07A0008F87B0008F2
:100FB000B07A0008B87A0008C07A0008907A000871
:100FC000EC7A0008F47A0008007B0008047B000833
:100FD0000C7B0008147B000808B5034690F83D0020
:100FE0001A6C93F83C10FFF781FF08BD10B5054C53
:100FF000204602F059FA01F0DFFA002384F83C3071
:1010000010BD00BF04020020F8B50025214B1D7063
:10101000214B1D70214804F033FC2E462F4601243D
:1010200006E01C4B01221A70592C16D001350134F0
:101030007E2C14D8610089B205230122184802F0E1
:10104000B5FC0028F3D12146164804F0B1FB382C3A
:10105000E7D0582CE8D10127E8E70126E6E727B9D1
:1010600056B99DB1FFF7C2FFF8BD0B4B01221A70B4
:10107000582001F043FCF4E7074B01221A70592075
:1010800001F03CFC084804F0FBFBEAE7074804F0E9
:10109000F7FBE7E7FB010020FA0100201C7B0008BA
:1010A000040200206C7B0008847B0008FC7B0008A5
:1010B00030B58BB0002406940794089409943B48FB
:1010C00002F0F2F93A4D2B6943F400132B61022030
:1010D00000F0F4FB2B6923F400132B61AB6943F0A0
:1010E0000803AB61AB6903F008030393039BC023C0
:1010F000069311230793089402230993A5F58235DB
:1011000006A9284600F012FF01228021284601F09E
:1011100099F801224021284601F094F8012000F0BE
:10112000CDFB16E0049B01330493049BB3F5FA6FE7
:10113000F8D3012240211F4801F084F800230593D1
:1011400002E0059B01330593059BB3F5FA6FF8D3D5
:101150000134082C07D800224021164801F072F80B
:1011600000230493E1E7134C0122C021204601F043
:1011700069F8012000F0A2FBC021204600F0E4FF46
:1011800001F01AFA0948002180F83C1006238DF876
:101190000B303223009301230DF10B0202F09EF974
:1011A000022000F08BFB0BB030BD00BF040200201A
:1011B00000100240000C014008B5022802D0FFF7E1
:1011C00015FF08BDFFF774FFFBE7000010B582B004
:1011D00004468DF807004FF47A7301220DF10701E0
:1011E000024803F054FB204602B010BD5802002014
:1011F00072B6FEE700B591B02822002106A804F0DF
:10120000DBFC0023019302930393049305930223D1
:10121000069301230A9310230B9306A800F078FB92
:1012200068B90F2301930021029103910491059164
:1012300001A800F09FFD20B911B05DF804FBFFF795
:10124000D7FFFFF7D5FF00002DE9F04788B0002554
:1012500000F010FBFFF7CEFF01F006F900F06AFA8C
:1012600001F0AAF901F028FA01224FF40051B04828
:1012700000F0E8FFAF4B1B682946986804F008FBB4
:10128000FFF7DEFD782000F019FBAB4804F0F8FA18
:10129000AA4804F0F5FAAA4804F0F2FA4FF4FA73F7
:1012A0001B22A849A84803F0F2FAA84804F0E8FA7B
:1012B000A74804F0E5FAFFF7FBFEA64804F078FA29
:1012C000A548FFF789FEFFF79FFE0A2000F0F6FA17
:1012D000A24804F0D5FAA24B1D70A24B1B7813B1A3
:1012E000002401230FE0A04804F0CAFA1BE01846CE
:1012F000FFF762FF1E2000F0E1FA974801F03AFA8A
:10130000034628B10134022C02DC002CEFDCF4E7A8
:10131000A3B11846FFF77AFD0146944804F048FA55
:101320008D48FFF759FE924804F0AAFA914B00222B
:101330001A70914B1B7843B100242FE0884B012297
:101340001A708E4804F09CFAEDE78D4804F098FA84
:1013500034E0FFF7ADFE0A2000F0B0FA06238DF866
:101360001C3032230093012307AA00217A4802F09F
:10137000B5F8142000F0A2FAFFF738FE1E2000F0A6
:101380009DFA754801F0C6FA054660B10134FFF7D1
:101390003DFD024621467B4804F00AFA022C02DC9D
:1013A000002CD6DCEDE79DB12846FFF72FFD014666
:1013B000754804F0FDF96848FFF70EFE734804F025
:1013C0005FFA734804F05CFA724804F059FA65E178
:1013D000684B01221A70704804F052FAEEE783421B
:1013E00000F2688100F59C5308336C4A1360014693
:1013F0006B4804F0DDF94FF4FA7310226949524842
:1014000003F045FA56E107AA06A9534801F0D8F9B6
:10141000804660B10134012C09DC002CF3DD0A2088
:1014200000F04CFAEFE700244FF00108F3E7B8F1C1
:10143000000F04D101240025AA46A9464CE1464CE0
:10144000204603F003F9814694F83CA0204603F0BF
:1014500000F905464046FFF7AFFE01243CE10DF1DF
:10146000160205A93C4801F06DFA074658B101364D
:10147000022E08DC002EF2DD082000F01FFAEEE755
:1014800000260127F4E70FB901232BE1324E304645
:1014900003F0DCF8814696F83CA0304603F0D9F81A
:1014A00005433846FFF788FE01231BE11BB1B8F165
:1014B000000F00D1A7B1002C7CD013B1B8F1000F00
:1014C00024D0002B00F0AF80002F40F0AC80BDF89E
:1014D0001630BDF814204146334804F069F9D4E0D1
:1014E0000698FFF735F804460D46BDF8163003930D
:1014F000BDF8143002930798FFF72AF8CDE90001F0
:1015000022462B46294804F053F9BEE00698FFF71F
:101510001FF804460D4602970798FFF719F8CDE922
:10152000000122462B46224804F042F9ADE000BFFC
:10153000001001401C000020507C0008747C000852
:10154000B87C00083C81000858020020F07C0008AC
:101550002C7D00085C7D0008040200207C7D0008D2
:10156000F9010020FB0100209C7D0008CC7D0008D3
:10157000147E0008F8010020FA010020FC7D00081C
:10158000347E0008647E0008887E0008EC7E000837
:10159000507F0008A47F0008B87E0008F4010020F6
:1015A000C87F00082881000870800008208000089B
:1015B0004C800008B3B33FB9BDF81620BDF8141035
:1015C0004D4804F0F5F860E001F044FA044638466E
:1015D000FFF71CFC01462246484804F0E9F88CB1AC
:1015E00014F0010F12D114F0020F13D114F0040FF4
:1015F00014D1434804F0DCF82A4651464846FFF728
:1016000075FC42E03F4804F0D3F8F2E73E4804F0AE
:10161000CFF8E8E73D4804F0CBF8E7E73C4804F0B2
:10162000C7F8E6E704B3FBB9B8F1000F0FD106988D
:10163000FEF78EFF04460D460798FEF789FFCDE9B9
:10164000000122462B46334804F0B2F81DE0404624
:10165000FFF7DCFB0146304804F0AAF82A46514661
:101660004846FFF743FC10E04046FFF7CFFB044637
:101670003846FFF7CBFB02462146284804F098F88D
:101680002A4651464846FFF731FC4FF400512448A2
:1016900000F0DEFD4FF4FA6000F010F900F008F9F8
:1016A000204B1B68002B7FF49AAE00F59C5008304D
:1016B0001C4B18600023069307930023ADF81430E9
:1016C000ADF81630184B1C78002C7FF4ACAE4FF000
:1016D00001080025AA46A946144B1B78002B7FF46D
:1016E000CFAE0127002C7FF4E1AE002B7FF462AF78
:1016F0000F4804F0C5F8C8E798800008BC800008CF
:10170000E4800008EC7A0008D4800008D880000843
:10171000DC800008E88000080881000814810008C7
:1017200000100140F4010020F9010020F801002020
:10173000E47F000830B589B0002404940594069431
:101740000794184B9A6942F010029A619A6902F064
:1017500010020192019A9A6942F004029A619A6910
:1017600002F004020292029A9A6942F008029A6117
:101770009B6903F008030393039B0B4D22464FF430
:101780000051284600F05EFD4FF4005304930123FE
:10179000059306940223079304A9284600F0C6FB8C
:1017A00009B030BD0010024000100140FEE7FEE726
:1017B000FEE7FEE7FEE770477047704708B500F0A8
:1017C0006BF808BD08B5024802F070FE08BD00BF06
:1017D0000402002008B5024803F04CF908BD00BF20
:1017E0005802002082B00E4B9A6942F001029A61C1
:1017F0009A6902F001020092009ADA6942F080527E
:10180000DA61DB6903F080530193019B054A536859
:1018100023F0E06343F00073536002B0704700BFF1
:10182000001002400000014010B504460E4B1A782B
:101830004FF47A73B3FBF2F30C4A1068B0FBF3F089
:1018400000F0FCFD68B90F2C01D901200AE000224C
:1018500021464FF0FF3000F0CFFD054B1C6000200B
:1018600000E0012010BD00BF0000002008000020A3
:101870000400002008B5074A136843F01003136002
:10188000032000F0A7FD0F20FFF7CEFFFFF7AAFF10
:10189000002008BD00200240034A1168034B1B785A
:1018A0000B441360704700BFFC01002000000020C3
:1018B000014B1868704700BFFC01002038B5044692
:1018C000FFF7F6FF0546B4F1FF3F02D0044B1B784B
:1018D0001C44FFF7EDFF401BA042FAD338BD00BF08
:1018E0000000002082B0084B1B68084AA2FB0323BB
:1018F0005B0A00FB03F3019300BF019B5A1E019298
:10190000002BF9D102B0704708000020D34D6210BF
:10191000002800F0F18170B582B00446036813F02E
:10192000010F2CD0994B5B6803F00C03042B1DD0E6
:10193000964B5B6803F00C03082B12D06368B3F579
:10194000803F41D0002B55D103F1804303F5043390
:101950001A6822F480321A601A6822F480221A600F
:1019600037E08A4B5B6813F4803FE7D0874B1B68F6
:1019700013F4003F03D06368002B00F0BF8123689D
:1019800013F0020F75D0814B5B6813F00C0F5FD022
:101990007E4B5B6803F00C03082B54D02369002BAB
:1019A00000F08A807A4B01221A60FFF781FF05461A
:1019B000764B1B6813F0020F75D1FFF779FF401BC0
:1019C0000228F5D903209EE1704A136843F480335E
:1019D0001360636843B3FFF76BFF05466B4B1B68EF
:1019E00013F4003FCBD1FFF763FF401B6428F5D908
:1019F000032088E1B3F5A02F09D0644B1A6822F4C4
:101A000080321A601A6822F480221A60E1E703F13A
:101A10008043A3F53C331A6842F480221A601A68A6
:101A200042F480321A60D4E7FFF742FF0546574B75
:101A30001B6813F4003FA2D0FFF73AFF401B642855
:101A4000F5D903205FE1514B5B6813F4803FA5D1CA
:101A50004E4B1B6813F0020F03D02369012B40F09B
:101A60004F814A4A136823F0F803616943EAC103CE
:101A70001360236813F0080F33D0A369002B5CD0E8
:101A8000434B0122C3F88024FFF712FF05463F4B6A
:101A90005B6A13F0020F21D1FFF70AFF401B0228F7
:101AA000F5D903202FE1394A136823F0F80361695F
:101AB00043EAC1031360DCE7354B00221A60FFF7ED
:101AC000F7FE0546314B1B6813F0020FD1D0FFF72C
:101AD000EFFE401B0228F5D9032014E10120FFF797
:101AE00001FF236813F0040F00F09680274BDB6999
:101AF00013F0805F34D1254BDA6942F08052DA610D
:101B0000DB6903F080530193019B0125214B1B6886
:101B100013F4807F26D0E368012B3DD0002B53D1F6
:101B200003F1804303F504331A6A22F001021A62BA
:101B30001A6A22F004021A6233E0154B0022C3F83D
:101B40008024FFF7B5FE0546104B5B6A13F0020FC9
:101B5000C7D0FFF7ADFE401B0228F5D90320D2E025
:101B60000025D3E70B4A136843F480731360FFF733
:101B70009FFE0646074B1B6813F4807FCBD1FFF70F
:101B800097FE801B6428F5D90320BCE000100240BA
:101B900000004242007000405F4A136A43F00103B4
:101BA0001362E36833B3FFF783FE06465A4B1B6AA2
:101BB00013F0020F2FD1FFF77BFE801B41F2883319
:101BC0009842F3D903209EE0052B09D0524B1A6AA4
:101BD00022F001021A621A6A22F004021A62E0E795
:101BE0004D4B1A6A42F004021A621A6A42F001026C
:101BF0001A62D6E7FFF75CFE0646474B1B6A13F0F6
:101C0000020F08D0FFF754FE801B41F28833984240
:101C1000F3D9032077E0E5B9E369002B72D03E4A9F
:101C2000526802F00C02082A56D0022B17D03B4B08
:101C300000221A66FFF73CFE0446374B1B6813F080
:101C4000007F47D0FFF734FE001B0228F5D90320A0
:101C500059E0314AD36923F08053D361DCE72F4B3D
:101C600000221A66FFF724FE05462B4B1B6813F073
:101C7000007F06D0FFF71CFE401B0228F5D9032089
:101C800041E0236AB3F5803F1AD023494B6823F41F
:101C90007413226A606A024313434B601F4B012294
:101CA0001A66FFF705FE04461B4B1B6813F0007F06
:101CB0000ED1FFF7FDFD001B0228F5D9032022E01D
:101CC000154A536823F40033A1680B435360DCE7E3
:101CD000002018E0002016E0012B16D00E4B5B68A8
:101CE00003F48031226A914211D103F47013626AC5
:101CF00093420ED1002006E001207047012002E04F
:101D0000012000E0002002B070BD0120FBE70120AF
:101D1000F9E70120F7E700BF00100240000042424F
:101D20000F4B5B6803F00C02082A01D00D48704786
:101D3000C3F383420C49885C13F4803F0BD0084BFB
:101D40005B68C3F34043094AD35C064A02FB00F0D8
:101D5000B0FBF3F07047064B03FB00F0704700BF89
:101D60000010024000127A005C81000858810008CF
:101D700000093D00002800F0A08070B50D46044623
:101D8000524B1B6803F007038B420BD24F4A136878
:101D900023F007030B431360136803F007038B4220
:101DA00040F08D80236813F0020F17D013F0040F5A
:101DB00004D0474A536843F4E0635360236813F048
:101DC000080F04D0424A536843F460535360404ABA
:101DD000536823F0F003A1680B435360236813F0AA
:101DE000010F31D06368012B20D0022B25D0384A57
:101DF000126812F0020F64D035494A6822F00302DB
:101E000013434B60FFF754FD0646314B5B6803F00C
:101E10000C036268B3EB820F16D0FFF749FD801BFD
:101E200041F288339842F0D9032045E0284A1268ED
:101E300012F4003FE0D101203EE0254A126812F082
:101E4000007FD9D1012037E0204B1B6803F0070346
:101E5000AB420AD91D4A136823F007032B431360D2
:101E6000136803F00703AB422DD1236813F0040F6E
:101E700006D0174A536823F4E063E1680B435360CC
:101E8000236813F0080F07D0114A536823F46053F6
:101E9000216943EAC1035360FFF742FF0C4B5B68C3
:101EA000C3F303130B4AD35CD8400B4B18600B4BA6
:101EB0001868FFF7B9FC002070BD012070470120B1
:101EC000FAE70120F8E70120F6E700BF0020024012
:101ED0000010024074810008080000200400002067
:101EE000014B1868704700BF0800002008B5FFF7D5
:101EF000F7FF044B5B68C3F30223034AD35CD8406B
:101F000008BD00BF001002406C81000808B5FFF753
:101F1000E7FF044B5B68C3F3C223034AD35CD8409A
:101F200008BD00BF001002406C81000870B582B08F
:101F30000024A446A2E07E4DAB4210D007D97D4DCF
:101F4000AB420CD005F58035AB4208D013E0A5F5C7
:101F50008015AB4203D005F57025AB4207D18B68E5
:101F6000002B55D0012B4ED04261082403E0A5F58B
:101F70008015AB42F3D0BEF1FF0F4BD806464FEAB7
:101F80008C0233680F25954023EA050304FA02F218
:101F9000134333604B6813F0805F6DD0664B9A69D2
:101FA00042F001029A619B6903F001030193019BD6
:101FB0004FEA9C02951C614B53F825600CF0030519
:101FC000AD000F23AB4026EA03065D4B984228D0B4
:101FD00003F58063984200F08D8003F5806398429A
:101FE00000F08A8003F58063984218D0042319E03A
:101FF000CC68C0E7CC680434BDE7CC680834BAE7E5
:10200000CC680C34B7E702610824B4E70024B2E7D7
:102010000424B0E7061DACF108029200B1E70323E7
:1020200000E00023AB4033430232444D45F82230F8
:102030004B6813F4801F61D0424A936843EA0E0351
:1020400093604B6813F4001F5ED03E4AD36843EAA6
:102050000E03D3604B6813F4003F5BD0394A5368DA
:1020600043EA0E0353604B6813F4803F58D0354A5F
:10207000136843EA0E0313600CF1010C0B6833FA8A
:102080000CF253D0012202FA0CF203EA020E32EAF9
:102090000303F1D14B68122B3FF64DAF122B3FF6E5
:1020A0006AAF01A555F823F05F1F0008F11F000873
:1020B000FB1F00080D200008771F0008771F00088D
:1020C000771F0008771F0008771F0008771F000898
:1020D000771F0008771F0008771F0008771F000888
:1020E000771F0008771F0008771F0008F51F0008FA
:1020F00001200008012395E7022393E7114A936822
:1021000023EA0E0393609CE70E4AD36823EA0E038A
:10211000D3609FE70B4A536823EA0E035360A2E79C
:10212000084A136823EA0E031360A5E702B070BDE6
:102130000000221000003110001002400000014099
:10214000000801400004014000226BE0032500E08C
:10215000002505FA04F4644542D0FF2B5AD8864680
:102160009500DEF800404FF00F0C0CFA05FC24EA55
:102170000C044FF0040C0CFA05FC44EA0C04CEF8F5
:102180000040C46824EA0303C360013231FA02F359
:1021900046D0012393400B40F7D09608B51C264C3F
:1021A00054F8255002F00304A4004FF00F0C0CFA71
:1021B00004FE0EEA050C214DA842C9D005F5806544
:1021C000A84209D005F58065A84207D005F58065CD
:1021D000A842BBD00425BCE70125BAE70225B8E731
:1021E000174C256825EA03052560656825EA03057F
:1021F0006560E56825EA0305E560A56825EA03054D
:10220000A5600D4FB41C57F8245025EA0E0547F879
:102210002450A2E700F1040EA2F10805AD00A0E7EA
:10222000F0BD013231FA02F305D0012393400B4097
:10223000F7D0F0B5B1E77047000001400008014059
:10224000000401400AB1016170470904016170474F
:10225000C36801EA030221EA030141EA0241016184
:102260007047034690F82120D2B2022A06D00422F9
:102270008263002280F820200120704701680A68EC
:1022800022F00E020A6001680A6822F001020A6068
:10229000026CC06B012101FA02F2426083F8211046
:1022A000002083F82000704708B590F82130DBB299
:1022B000022B03D004238363012008BD0268136846
:1022C00023F00E0313600268136823F00103136008
:1022D0000368194A934214D0143293421FD0143227
:1022E00093421ED0143293421ED0143293421ED019
:1022F0001432934202D04FF0807203E04FF4801208
:1023000000E001220D4B5A60012380F821300023A8
:1023100080F82030436B6BB198470020CDE7102246
:10232000F0E74FF48072EDE74FF48052EAE74FF4A4
:102330008032E7E70020C0E70800024000000240CA
:1023400090F821007047000000280CDB00F01F020D
:102350004009012393402030034A42F82030BFF364
:102360004F8FBFF36F8F704700E100E0002808DB5C
:102370000901C9B200F1604000F5614080F8001326
:10238000704700F00F000901C9B2014B19547047A2
:1023900014ED00E000B500F00700C0F1070CBCF13F
:1023A000040F28BF4FF0040C031D062B0FD9C31ECA
:1023B0004FF0FF3E0EFA0CF021EA000199400EFAB0
:1023C00003FE22EA0E0241EA02005DF804FB00234C
:1023D000EEE70000074AD36823F4E0631B041B0CFC
:1023E000000200F4E060034343F0BF6343F40033B2
:1023F000D360704700ED00E010B50446054BD86887
:10240000C0F30220FFF7C6FF01462046FFF7AEFFEC
:1024100010BD00BF00ED00E0002807DB00F01F0248
:10242000400901239340024A42F82030704700BF20
:1024300000E100E008B5FFF787FF08BD0138B0F103
:10244000807F0BD24FF0E0235861054AF02182F8DB
:1024500023100020986107221A61704701207047FD
:1024600000ED00E0704700001F4B5B6803F00C03B9
:10247000042B14D0082B16D01BB11C4B1C4A1A601D
:1024800002E01A4B1A4A1A60174B5B68C3F3031336
:10249000184AD15C154A1368CB4013607047134B40
:1024A000134A1A60F0E7104A53685268C3F3834333
:1024B000023312F4803F05D10F4A02FB03F30B4AAB
:1024C0001360E1E7084A526812F4003F05D00A4A57
:1024D00002FB03F3054A1360D6E7054A02FB03F348
:1024E000024A1360D0E700BF00100240080000203D
:1024F00000127A007481000800093D0010B50346FF
:102500000C4A0D490D48006840B10C48006803446E
:10251000521A934206D8094A136010BD0748084C66
:102520000460F2E703F09AFB0C2303604FF0FF30E6
:10253000F3E700BF0050002000040000000200206C
:10254000F00300200120704708B503F087FB162335
:1025500003604FF0FF3008BD08B54FF0FF31FFF7C3
:10256000F3FFFEE770B50C461646002506E0AFF314
:102570000080214601F8010B01350C46B542F6DB1F
:10258000304670BD70B50C461646002504E014F8C0
:10259000010BFEF71BFE0135B542F8DB304670BD7E
:1025A0004FF0FF3070474FF400534B6000207047EE
:1025B000012070470020704708B51048104B036099
:1025C000104B436000238360C3604FF4804202617C
:1025D00043618361C361036200F088FE38B9074834
:1025E0004CF25033436000F081FE18B908BDFEF78D
:1025F000FFFDF4E7FEF7FCFDF8E700BF0402002052
:1026000000540040A086010010B586B0002302935C
:102610000393049305930268154B9A4201D006B0C8
:1026200010BD144CA36943F00803A361A36903F030
:1026300008030093009BC0230293122303930323F8
:10264000059302A90C48FFF771FCE36943F40013FA
:10265000E361E36903F400130193019B002201216C
:102660001F20FFF7C9FE1F20FFF7D6FED7E700BFE8
:102670000054004000100240000C014002680B4B67
:102680009A4200D0704710B5094AD36923F4001369
:10269000D361084C40212046FFF756FD802120469B
:1026A000FFF752FD1F20FFF7C5FE10BD005400408C
:1026B00000100240000C014008B50A480A4B0360B4
:1026C0004FF4E133436000238360C36003610C2255
:1026D00042618361C36102F0AAF800B908BDFEF748
:1026E00087FDFBE7580200200038014070B586B036
:1026F0000023029303930493059302681B4B9A42B1
:1027000001D006B070BD03F558439A6942F4804287
:102710009A619A6902F480420092009A9A6942F0A2
:1027200004029A619B6903F004030193019B4FF437
:102730000073029302250395032305930C4E02A90F
:102740003046FFF7F3FB4FF48063029300240394B9
:10275000049402A93046FFF7E9FB224629462520CA
:10276000FFF74AFE2520FFF757FECAE70038014071
:102770000008014010B584B00446BA238DF80C302F
:102780000E4B1B68ADF808301B0C8DF80A30642323
:102790000093012303AA702100F0A0FE08B104B049
:1027A00010BD2820FFF78AF864230093032302AAB0
:1027B0007021204600F092FEF1E700BF84810008FE
:1027C0002DE9F04186B03B4B1B68ADF814301B0C73
:1027D0008DF8163000285ED00D46164607460029B3
:1027E0005CD0002A5DD064230093032305AA7021E6
:1027F00000F074FE804618B1404606B0BDE8F08196
:102800005020FFF75BF8002403E00A20FFF756F89A
:1028100001341D2C0DD864230093062303AA7021D4
:10282000384600F017FF00283ED19DF90C30002BF0
:10283000EBDB9DF90C30002B38DB9DF80D209DF86B
:102840000E301B0143EA02339DF80F00040404F428
:1028500070249DF8102044EA02249DF811201443AE
:1028600043EA1010FEF75AFA1349FDF759FC4FF0EE
:102870005651FDF755FC30602046FEF74FFA0F49E0
:10288000FDF74EFC4FF05651FDF74AFC0C49FEF7A0
:1028900093F92860B0E74FF00108ADE74FF0010869
:1028A000AAE74FF00108A7E78046A5E74FF0030825
:1028B000A2E700BF888100080000C842000048432A
:1028C0000000484284460022FF200FE04000C0B2D2
:1028D0000133DBB2072B07D810F0800FF6D0400091
:1028E000C0B280F03100F3E70132D2B28A4204D2A2
:1028F0001CF8023058400023ECE77047A0F1580361
:10290000DBB2012B00D97047014B1870FBE700BF09
:102910000C00002000B585B04FF44873ADF80C30C2
:1029200058B1074B1978C8230093022303AA490022
:1029300000F0D4FD05B05DF804FB0120FAE700BF0C
:102940000C0000202DE9F04387B04FF40263ADF88E
:10295000143000286ED00F469046064600296FD0EE
:10296000002A70D00024394B1C704FF0010911E08F
:10297000374B1978C8230093022305AA4900304633
:1029800000F0ACFD70B1314A137843F001031370CD
:1029900081460134072C4FD8002CE9D00420FEF7E3
:1029A0008DFFE5E72320FEF789FF00251BE0284B7C
:1029B0001978C8230093062303AA4900304600F083
:1029C00049FE8146B8B9022103A8FFF77BFF9DF8B5
:1029D0000E30984215D01D4A137843F0040313704B
:1029E00001354FF00109022DD3D8002DDFD003208F
:1029F000FEF764FFDBE7154A137843F00203137018
:102A0000C7E702210DF10F00FFF75CFF9DF81130C1
:102A10009842E0D19DF80C209DF80D3043EA022346
:102A20003B809DF80F209DF8103043EA0223A8F860
:102A3000003001E04FF00109484607B0BDE8F083DF
:102A40004FF00109F8E74FF00109F5E7A002002077
:102A50000C000020014B1878704700BFA002002036
:102A600003685A6912F0800F01D000221A61704782
:102A700090F83E30DBB2402B10D00369B3F5804FA5
:102A80001BD0036D002B39D1436CC3F3C81302680C
:102A900003F0060343F0F00313617047036D2BB995
:102AA000436C026803F0FE0313617047436C0268D5
:102AB00043F00103DBB21361704790F83D30DBB2A5
:102AC000212B0FD0436C026843F00103DBB213618A
:102AD000436B6BB19B6A5BB10268536843F400635C
:102AE00053607047436C026803F0FE031361EFE725
:102AF000836B33B19B6A002BEED102E0036D012B97
:102B000000D07047436CC3F3C813026803F0060398
:102B100043F0F1031361F4E7436C0268DBB2136125
:102B2000436B3BB19B6A2BB10268536843F400636B
:102B300053607047836B002BFBD09B6A002BF3D153
:102B4000F7E7000010B48DB090F83E30DAB2C16AF9
:102B5000046B90F83D30DBB2222B0AD000230B939C
:102B600003685A690B929B690B930B9B0DB010BCC9
:102B70007047036D0BB9402A17D0036D1BB9036969
:102B8000B3F5404F19D0438D9BB2002B25D1039351
:102B900003685A6903929A690392039A1A6842F485
:102BA00000721A6000230365E0E7019303685A6925
:102BB00001929B690193019BD8E70023029303686C
:102BC0005A6902929A690292029A1A6842F48072D1
:102BD0001A60036D01330365C8E7438D9BB2012B77
:102BE0001CD0438D9BB2022B72D00268136843F451
:102BF0008063136003685A6812F4006F00F0B480B9
:102C0000202900F2BA80082980F0A780012940F02D
:102C1000AB805A6842F480525A60A5E011F5803FBB
:102C200011D0082934D0202932D0122C2ED00429DA
:102C300040D002293ED010293CD00268136823F40A
:102C4000806313603BE00268136823F480631360C1
:102C500003685A6812F4006F0CD01A6822F480627C
:102C60001A600023049303685A6904929B690493D1
:102C7000049B97E7002205925A6905929A6905928A
:102C8000059A1A6842F400721A608BE70129D0D0C5
:102C90000268136823F480631360002307930368BA
:102CA0005A6907929A690792079A1A6842F4007261
:102CB0001A6077E70268136843F4806313600023A7
:102CC000069303685A6906929B690693069B69E717
:102CD000102904D82B4BCB4013F0010F22D10268EE
:102CE000136843F4006313600023089303685A6970
:102CF00008929A690892089A1A6822F480621A6007
:102D000003685A6812F4006F3FF44CAF20291FD8B3
:102D1000082915D201297FF445AF5A6842F4805240
:102D20005A603FE70268136843F48063136000232E
:102D3000099303685A6909929B690993099BDFE724
:102D40000839114ACA4012F0010F3FF42BAFE4E7F3
:102D500011F5803F7FF426AFDFE708390A4ACA4001
:102D600012F0010F7FF455AF00230A9303685A69EC
:102D70000A929B690A930A9B14E711F5803FF3D1ED
:102D800047E700BF1400010001010001438D9BB221
:102D90005BB1426A036812781A61436A0133436285
:102DA000438D9BB2013B9BB243857047438D9BB2E1
:102DB0005BB103681A69436A1A70436A013343625C
:102DC000438D9BB2013B9BB24385704782B0002389
:102DD00001930E4B1B68DB080D4AA2FB03231B0A61
:102DE00003EB83030193019B013B0193019B33B1EF
:102DF00003681B6813F4007FF5D1002004E0036C26
:102E000043F020030364012002B070470800002053
:102E100089B5F81403685A6912F4806F01D1002053
:102E200070476FF480625A6100230363202280F8A8
:102E30003D2080F83E30026C42F00402026480F8CB
:102E40003C3001207047C36AB3F52A0F04D0C36A2F
:102E5000B3F12A4F03D070470123C36270470823A0
:102E6000C362F8E72DE9F04106460C46174698463E
:102E70003BE0FEF71DFD069BC01A404502D8B8F1A5
:102E8000000F32D1012D18D033689B6924EA030367
:102E90009BB2B3FA83F35B099F4226D100233363CD
:102EA000202286F83D2086F83E30326C42F0200227
:102EB000326486F83C30012027E033685B6924EAFD
:102EC00003039BB2B3FA83F35B09E5E733685B69FD
:102ED00024EA030C1FFA8CFCBCFA8CFC4FEA5C1C45
:102EE000674511D1B8F1FF3FC3D1C4F30745012DA8
:102EF000ECD033689B6924EA030C1FFA8CFCBCFA03
:102F00008CFC4FEA5C1CEBE70020BDE8F0812DE96A
:102F1000F84305460E469046994653E01A6842F437
:102F200000721A602B686FF480625A6100232B6371
:102F3000202285F83D2085F83E302A6C42F00402BC
:102F40002A6485F83C3001204AE0FEF7B1FCA0EB92
:102F50000900404502D8B8F1000F33D1012F17D036
:102F60002B689B6926EA03039BB2003B18BF012331
:102F700043B300232B63202285F83D2085F83E30A3
:102F80002A6C42F020022A6485F83C30012027E0B8
:102F90002B685B6926EA03039BB2003B18BF012341
:102FA000E6E72B689C6926EA0404A4B2003C18BF3B
:102FB0000124A4B12B685A6912F4806FAED1B8F124
:102FC000FF3FC2D1C6F30747012FEAD12B685C69E6
:102FD00026EA0404A4B2003C18BF0124E9E700205B
:102FE000BDE8F883F0B583B004460D4616461F468B
:102FF000C36A082B0DD0012B0BD013F5803F08D0EE
:10300000036B122B0AD10268136843F480731360B8
:1030100004E02268136843F480731360009733461A
:1030200000224FF001112046FFF71CFF80B92369F1
:10303000B3F5804F16D1236805F0FE051D613B46B0
:10304000324613492046FFF762FFF8B903B0F0BDDE
:1030500023681B6813F4807F02D04FF4007323644D
:103060000320F3E7EB11226803F0060343F0F003BB
:1030700013613B46324607492046FFF748FF18B91F
:103080002368EDB21D61DAE70120DFE70120DDE70B
:1030900002000100080001002DE9F04184B004465F
:1030A0000D4616461F46C26A01680B6843F48063EA
:1030B0000B60082A0DD0012A0BD012F5803F08D0F2
:1030C000036B112B0AD10268136843F480731360F9
:1030D00004E02268136843F480731360009733465A
:1030E00000224FF001112046FFF7BCFE98B923697A
:1030F000B3F5804F19D1236845F00105EDB21D618C
:103100003B4632462A492046FFF701FF00284CD1B2
:1031100004B0BDE8F08123681B6813F4807F02D0FF
:103120004FF4007323640320F2E74FEAE51808F038
:103130000608236848F0F0021A613B4632461D49F2
:103140002046FFF7E4FE08B10120E1E72368EDB275
:103150001D613B46324616492046FFF7D8FE08B1AE
:103160000120D5E7002203922368596903919969E8
:1031700003910399196841F48071196000973346EF
:103180004FF001112046FFF76DFE20B9226848F08C
:10319000F1031361B4E723681B6813F4807F02D046
:1031A0004FF4007323640320B2E70120B0E700BFAF
:1031B000020001000800010070B504460D461646E5
:1031C00023685B6913F0800F21D12046FFF722FEB0
:1031D000F8B9B5F1FF3FF3D0FEF76AFB801BA842B8
:1031E00001D8002DECD123685B6913F0800FE7D183
:1031F00000232363202284F83D2084F83E30226C93
:1032000042F02002226484F83C30012000E00020DB
:1032100070BD0120FCE770B504460D4616462368D4
:103220005B6913F0040F21D12046FFF7F3FDF8B9D5
:10323000B5F1FF3FF3D0FEF73BFB801BA84201D85E
:10324000002DECD123685B6913F0040FE7D1002354
:103250002363202284F83D2084F83E30226C42F023
:103260002002226484F83C30012000E0002070BD80
:103270000120FCE770B504460D46164614E06FF0D9
:1032800010025A6100232363202284F83D2084F831
:103290003E30226C226484F83C30012025E0236813
:1032A0005B6913F0400F10D02368586910F0400F8D
:1032B0001AD1586910F0100FE1D1FEF7F9FA801B0E
:1032C000A842ECD8002DEFD1E9E7002323632022A8
:1032D00084F83D2084F83E30226C42F020022264C3
:1032E00084F83C30012000E0002070BD002800F090
:1032F000CC8070B5044690F83D30002B77D0242365
:1033000084F83D302268136823F0010313602268BB
:10331000136843F4004313602268136823F40043E6
:103320001360FEF7E3FD62685A4B9A4264D85A4B29
:1033300098428CBF00230123002B40F0A8805749FE
:10334000A1FB00318B0C25686A6822F03F0242EA3B
:1033500091426A6021680A6A22F03F0266684D4D18
:10336000AE424FD8013313430B622168CA6922F47D
:103370004F4222F0FF026568464B9D424CD8431EE7
:103380006D00B3FBF5F3013340F6FC70034278D0D7
:10339000C3F30B031A43CA6121680B6823F0C0030F
:1033A000E269206A024313430B6021688B6823F4AF
:1033B000034323F0FF032269E068024313438B6059
:1033C0002168CB6823F0FF036269A06902431343BD
:1033D000CB602268136843F001031360002020646F
:1033E000202384F83D30206384F83E0070BD80F8CF
:1033F0003C30FFF709F982E7294B98428CBF002344
:10340000012399E74FF4967505FB03F3254DA5FBC2
:1034100003539B090133A6E7A668BEB9431E05EB1B
:10342000450CB3FBFCF30133C3F30B03B3FA83F393
:103430005B0943BBC6B9431E05EB4505B3FBF5F37A
:103440000133C3F30B0343F40043A3E7431E05EB2F
:10345000850C0CEB8C0CB3FBFCF30133C3F30B03B7
:10346000B3FA83F35B09E4E7431E05EB850505EB3F
:103470008505B3FBF5F30133C3F30B0343F440437A
:1034800088E7042386E7012384E7012070470120B1
:10349000ACE700BFA08601007F841E0083DE1B43D3
:1034A000FF083D00D34D6210A8B110B50446242397
:1034B00080F83D300268136823F001031360FFF7C2
:1034C000DDF80020206484F83D00206384F83E008D
:1034D00084F83C0010BD0120704700002DE9F04346
:1034E00085B004460F46914698460C9EFEF7E0F9DB
:1034F000054694F83D00C0B2202804D00227384683
:1035000005B0BDE8F0830095192301224F492046FC
:10351000FFF7A8FC002840F0928094F83C30012B83
:1035200000F08F80012384F83C3023681A6812F081
:10353000010F03D11A6842F001021A602268136871
:1035400023F400631360212384F83D30102384F8B2
:103550003E3000232364C4F82490A4F82A80638DAD
:1035600023853B4BE3622B46324639462046FFF724
:1035700039FD0746002866D10023039323685A6962
:1035800003929B690393039B11E0236C042B01D0EE
:103590000127B4E72268136843F400731360F7E768
:1035A0002A4631462046FFF736FE00282ED1238DCD
:1035B000002B36D02A4631462046FFF7FDFD002875
:1035C000E3D1626A236812781A61606A431C6362FD
:1035D000618D89B2013989B26185238D013B9BB22E
:1035E00023852268516911F0040FD9D0002BD7D060
:1035F00043781361636A01336362638D9BB2013B5D
:103600009BB26385238D013B2385C9E7236C042B83
:1036100001D0012773E72268136843F40073136035
:10362000F7E72268136843F400731360202384F8DB
:103630003D30002384F83E3084F83C305FE70227B9
:103640005DE702275BE7012759E700BF0200100092
:103650000000FFFF2DE9F04389B004460F46914674
:103660009846109E00230793FEF722F9054694F82A
:103670003D00C0B2202804D00227384609B0BDE87A
:10368000F08300951923012280492046FFF7EAFBC9
:10369000002840F07A8194F83C30012B00F07781CB
:1036A000012384F83C3023681A6812F0010F03D11B
:1036B0001A6842F001021A602268136823F400635A
:1036C0001360222384F83D30102384F83E30002319
:1036D0002364C4F82490A4F82A80638D23856C4B5E
:1036E000E3622B46324639462046FFF7D5FC0746B3
:1036F000002840F04E81238D5BB9039323685A69FB
:1037000003929A690392039A1A6842F400721A604B
:10371000F3E0012B0FD0022B21D02268136843F471
:10372000806313600023069323685A6906929B699D
:103730000693069BE1E02268136823F4806313601C
:1037400072B60023049323685A6904929A6904921A
:10375000049A1A6842F400721A6062B6CDE02268D8
:10376000136843F40063136072B600230593236863
:103770005A6905929A690592059A1A6822F480623C
:103780001A6062B6B9E02A4631462046FFF772FD5C
:10379000002840F0008123681A69636A1A70636A1E
:1037A00001336362238D013B2385638D9BB2013B13
:1037B0009BB26385A1E0009533460022354920463F
:1037C000FFF750FB002840F0EA802268136823F4DA
:1037D0008063136072B623681A69636A1A70636A39
:1037E00001336362238D013B2385638D9BB2013BD3
:1037F0009BB26385284B1B68DB08284AA2FB032386
:103800001B0A03EB8303C3EBC30307930799013937
:1038100007910799002928D023685A6912F0040FEC
:10382000F4D01A6842F400721A6023681A69636A55
:103830001A70636A01336362238D013B2385638DB4
:103840009BB2013B9BB2638562B623681A69636AC7
:103850001A70636A01336362238D013B2385638D94
:103860009BB2013B9BB2638547E000232363202288
:1038700084F83D2084F83E30226C42F0200222641D
:1038800062B684F83C300127F7E600BF0200100062
:103890000000FFFF040001000800002089B5F814B3
:1038A0002A4631462046FFF7E5FC002879D12368F7
:1038B0001A69636A1A70636A01336362228D013A7E
:1038C00092B22285638D9BB2013B9BB263852368D4
:1038D000596911F0040F10D0032A48D023681A69DF
:1038E000636A1A70636A01336362238D013B238527
:1038F000638D9BB2013B9BB26385218D00293BD038
:103900000329CDD801293FF43EAF02297FF453AFFC
:1039100000953346002224492046FFF7A3FA0028E9
:103920003BD172B62268136843F4007313602368B6
:103930001A69636A1A70636A01336362238D013BFB
:103940002385638D9BB2013B9BB2638562B623687E
:103950001A69636A1A70636A01336362238D013BDB
:103960002385638D9BB2013B9BB26385C5E71A68D3
:1039700022F480621A60B1E7202384F83D300023EE
:1039800084F83E3084F83C3077E6022775E602275B
:1039900073E6012771E601276FE601276DE601272F
:1039A0006BE6012769E600BF040001002DE9F04342
:1039B00085B00446884691461D46FDF779FF94F888
:1039C0003D30DBB2202B03D0022005B0BDE8F083F0
:1039D000064600901923012257492046FFF742FA74
:1039E000002840F0A08094F83C30012B00F09D802E
:1039F000012384F83C3023681A6812F0010F03D1C8
:103A00001A6842F001021A602268136823F4006306
:103A10001360242384F83D3000272764474BE3627A
:103A200040E023681B6813F4807F02D04FF40073DA
:103A300023640320C9E7A02384F83D30226853693A
:103A4000C3F340035269C2F3802294F83DC05FFA89
:103A50008CFCBCF1A00F09D043B93AB9FDF728FF9F
:103A6000801BA842E7D8002DE8D1E4E7202384F8A2
:103A70003D3023685A6912F0020F31D11A6842F4BE
:103A800000721A6023686FF480625A6100961923ED
:103A9000012229492046FFF7E5F9002849D10137DD
:103AA0004F4538D22268136843F480731360009640
:103AB0002B4600224FF001112046FFF7D3F90028D2
:103AC000AFD1236808F0FE021A61FDF7F1FE064649
:103AD00022685369C3F340035269C2F38022B4E7FA
:103AE0001A6842F400721A600023039323685A692B
:103AF00003929B690393039B0096192301220E49AD
:103B00002046FFF7AFF990B9202384F83D30002319
:103B100084F83C3059E7202384F83D30002384F8B2
:103B20003C30012051E702204FE702204DE7012001
:103B30004BE7012049E700BF020010000000FFFF33
:103B400070477047704708B590F83D30DAB2438D42
:103B50009BB283B1416A036809781961436A0133F2
:103B60004362438D9BB2013B9BB24385438D9BB225
:103B70000BB9292A00D008BD0268536823F480637A
:103B8000536021230363282380F83D30FFF7DAFFD9
:103B9000F1E7704708B590F83D30DAB2438D9BB23B
:103BA00083B103681969436A1970436A0133436238
:103BB000438D9BB2013B9BB24385438D9BB20BB9B6
:103BC0002A2A00D008BD0268536823F4806353603A
:103BD00022230363282380F83D30FFF7DAFFF1E763
:103BE000704700B583B090F83D3003F02803282BD0
:103BF0000CD00023019302685169019192690192EE
:103C0000019A80F83C3003B05DF804FB0268536809
:103C100023F48063536011F0040F0BD0002311F0E4
:103C2000800F09D18289002180F83C101946FFF7E6
:103C3000D7FFE8E70123F2E7028BF4E7704770470C
:103C400008B5C26A90F83D30DBB2212B00D008BD28
:103C5000438D9BB263B1426A036812781A61436A6A
:103C600001334362438D9BB2013B9BB24385EEE738
:103C7000082A04D0202A02D012F5803F19D1026808
:103C8000536823F4E06353600268136843F40073DD
:103C9000136000230363202380F83D3090F83E300A
:103CA000DBB2402B15D0002380F83E30FFF748FFF1
:103CB000CDE70268536823F4E06353601123036384
:103CC000002380F83E30202380F83D30FFF738FF96
:103CD000BDE7002380F83E30FFF7B1FFB7E708B536
:103CE00090F83D30026D9AB9C36C012B08D0836CFB
:103CF000C3F3072302681361036D0133036508BD35
:103D0000836C0268DBB21361036D02330365F6E76F
:103D1000DBB2026D012A23D0026D022A3ED1222B92
:103D200026D0428D92B20AB1212B2AD0428D92B276
:103D3000002AE4D1212BE2D10268536823F4E06326
:103D400053600268136843F4007313600023036335
:103D5000202280F83D2080F83E30FFF770FFCEE74C
:103D6000836C0268DBB21361036D01330365C6E740
:103D70000268136843F480731360036D01330365B5
:103D8000BDE7426A036812781A61436A01334362ED
:103D9000438D9BB2013B9BB24385B0E7FEF760FECB
:103DA000ADE710B590F83D30DBB290F83E20D2B2CE
:103DB000C46A018D00293BD1212B02D0402A42D078
:103DC00010BD082C04D0202C02D014F5803F19D14E
:103DD0000268536823F4E06353600268136843F495
:103DE0000073136000230363202380F83D3090F8B4
:103DF0003E30DBB2402B15D0002380F83E30FFF779
:103E00009FFEDDE70268536823F4E06353601123EB
:103E10000363002380F83E30202380F83D30FFF715
:103E20008FFECDE7002380F83E30FFF708FFC7E79D
:103E3000212BC3D1438D9BB243B90268536823F44D
:103E400080635360BCE7222BBAD1F3E790F83E3091
:103E5000DBB2402B0CD0426A036812781A61436AC5
:103E600001334362438D9BB2013B9BB24385A7E77D
:103E7000FFF735FFA4E7704708B5C26A438D9BB2D0
:103E8000042B14D0438D9BB2032B22D0438D9BB2C5
:103E9000022B39D003681A69436A1A70436A0133E6
:103EA0004362438D9BB2013B9BB2438510E00268A5
:103EB000536823F48063536003681A69436A1A7075
:103EC000436A01334362438D9BB2013B9BB24385FE
:103ED00008BD01684B6823F480634B60042A06D058
:103EE000022A04D00268136823F480631360036815
:103EF0001A69436A1A70436A01334362438D9BB265
:103F0000013B9BB24385E3E7531E0F2B42D8DFE80A
:103F100003F0083B413B4141414141414141414165
:103F2000410801680B6823F480630B60036819691A
:103F3000436A1970416A4B1C4362438D9BB2013B3B
:103F40009BB2438503681B694B70436A013343622C
:103F5000438D9BB2013B9BB2438501684B6823F4C0
:103F600040734B60202380F83D3090F83E30DBB248
:103F7000402B15D0002380F83E30082A17D0202A85
:103F800015D01223036314E001680B6843F48063C7
:103F90000B60CBE701680B6843F400730B60C5E767
:103FA000002380F83E300363FFF765FF90E70023AE
:103FB0000363FFF7C6FD8BE7704738B590F83D30D7
:103FC000DBB2222B00D038BD0446C56A438D9BB2BC
:103FD000032B15D903681A69436A1A70436A0133BF
:103FE0004362438D9BB2013B9BB24385438D9BB2A1
:103FF000032BE8D10268536823F480635360E2E73F
:10400000C26A022A01D0012B05D92268536823F421
:1040100080635360D7E7FEF7D9FE002835D12268C8
:10402000136823F4806313602268536823F4E06309
:10403000536023681A69636A1A70636A01336362A2
:10404000638D9BB2013B9BB26385202384F83D3096
:1040500094F83E30DBB2402B09D0002384F83E3088
:10406000082D0CD0202D0AD01223236309E0002351
:1040700084F83E3023632046FFF7FDFEA3E70023CC
:1040800023632046FFF75DFD9DE72268536823F414
:10409000E063536023681A69636A1A70636A0133C4
:1040A0006362638D9BB2013B9BB26385202384F8DE
:1040B0003D30002384F83E302046FFF77DFF82E745
:1040C0007047000000B583B000230193406A90F868
:1040D0003D20D2B2324B1B68DB083249A1FB0313EF
:1040E0001B0A03EB8303C3EBC3030193019B43B19F
:1040F000019B013B019303681B6813F4007FF5D11A
:1041000003E0036C43F020030364436B0BB1002115
:104110009962836B0BB10021996201680B6823F4EB
:1041200080630B6000234385436B0BB1002159630F
:10413000836B0BB10021596301680B6823F0010305
:104140000B6090F83D30DBB2602B0ED002F02802FD
:10415000282A14D0202380F83D30002380F83E30F8
:10416000FFF72AFF03B05DF804FB202380F83D3001
:10417000002380F83E300364FFF7A2FFF2E70268F5
:10418000136843F0010313600268136843F480630B
:10419000136000230363282380F83D30E0E700BF6D
:1041A0000800002089B5F81410B5044690F83D3099
:1041B000DBB290F83E20D2B2102A36D0402A34D05A
:1041C00003F02802282A38D02268526812F4006FBF
:1041D00007D1602B05D0202384F83D30002384F8DC
:1041E0003E300023236323685A6812F4006F48D0DE
:1041F0005A6822F400625A60626B92F82130DBB296
:10420000012B20D0444B5363606BFEF74DF8002820
:1042100049D02268136823F001031360202384F837
:104220003D30606B436B98473DE0222BC8D121683D
:104230000A6822F400620A60C2E70023236328238D
:1042400084F83D30CFE7A36B334A5A63A06BFEF787
:104250002BF840B323685A6912F0400F05D01A6951
:10426000636A1A70636A013363622268136823F019
:1042700001031360202384F83D30A06B436B984703
:1042800011E094F83D20D2B2602A1FD05A6912F092
:10429000400F05D01A69636A1A70636A013363625A
:1042A0002046FFF789FE236C13F00F0F04D022681D
:1042B000536823F4E063536094F83D30DBB2226C22
:1042C00012F0040F01D0282B18D010BD202284F842
:1042D0003D20002222645A6912F0400F05D01A696D
:1042E000636A1A70636A013363622268136823F099
:1042F000010313602046FFF7E3FED4E7074BE362B8
:1043000000232363202284F83D2084F83E30204699
:10431000FFF794FCD9E700BFC54000080000FFFF8D
:1043200030B583B0044690F83D50EDB20268536852
:1043300023F4E06353600023019303685A690192F8
:104340001A6842F001021A60019B0268136823F4A4
:104350008063136003685A6812F4006F38D0222D0E
:1043600021D02A2D1FD0426B1268526892B242852A
:10437000428D92B21AB1026C42F0040202645A6891
:1043800022F400625A60606BFDF7DAFF01281FD04B
:10439000636B444A5A63606BFDF786FFC0B1606B84
:1043A000436B984714E0A26B1268526892B2628520
:1043B000628D92B21AB1226C42F0040222645A68F1
:1043C00022F400625A60A06BFDF7BAFF012842D1C7
:1043D000638D9BB233B323685A6912F0040F0AD07D
:1043E0001A69636A1A70636A01336362638D9BB2F0
:1043F000013B9BB2638523685A6912F0400F0AD0D3
:104400001A69636A1A70636A01336362638D9BB2CF
:10441000013B9BB26385638D9BB21BB1236C43F060
:1044200004032364236C13BB2A2D25D094F83D305C
:10443000DBB2282B29D0236B222B01D0222D19D1BE
:1044400000232363202284F83D2084F83E30204658
:10445000FFF79FFB0EE0A36B124A5A63A06BFDF7B8
:1044600023FF0028B4D0A06B436B9847B0E72046E9
:10447000FFF79AFE03B030BD00232363282384F89E
:104480003D302046FFF785FBD0E7074BE362002372
:104490002363202284F83D2084F83E302046FFF735
:1044A000CDFBE7E7C54000080000FFFFF8B5044674
:1044B00002685568C66A90F83E30DBB290F83D104D
:1044C000C8B2102B13D0402B11D0236C002B7AD004
:1044D0005369002113F0020F78D015F4007F75D0D6
:1044E000236C03B191692046FFF77BFBF8BDD2F83E
:1044F00018C0516911F0010705D1B6F52A0FF5D0A2
:10450000B6F12A4FF2D017B115F4007F29D111F07E
:10451000080F02D015F4007F2AD111F0020F02D04B
:1045200015F4007F28D11CF0040F31D0526812F42A
:10453000006FDBD111F0800F05D015F4806F02D031
:1045400011F0040F1CD011F0040FCFD015F4007F30
:10455000CCD0212818D0402BC8D12046FFF7BFFB74
:10456000C4E72046FEF76FFC2046FEF781FABDE760
:104570002046FEF7D1FAB9E72046FEF7E3FAB5E7A1
:104580002046FFF70EFCB1E72046FFF759FBADE7E9
:10459000536813F4006FA9D111F0400F05D015F442
:1045A000806F02D011F0040F09D011F0040F9DD0DC
:1045B00015F4007F9AD02046FFF75EFC96E7204670
:1045C000FFF7FBFC92E79169536983E713F0100F43
:1045D00002D015F4007F18D121281AD0292818D02C
:1045E00013F0400F05D015F4806F02D013F0040FC4
:1045F00028D013F0040F3FF479AF15F4007F3FF497
:1046000075AF2046FEF7D2FB70E72046FFF788FE25
:104610006CE713F0800F05D015F4806F02D013F013
:10462000040F0BD013F0040F3FF460AF15F4007FBC
:104630003FF45CAF2046FEF7A9FB57E72046FFF7A3
:1046400082FA53E72046FFF7A5FA4FE790F83D00BE
:104650007047006C7047026802F10C0353E8003F9A
:1046600023F490730C3242E800310029F3D1026840
:1046700002F1140353E8003F23F00103143242E82F
:1046800000310029F3D1036B012B05D0202380F8E2
:104690004230002303637047026802F10C0353E8C1
:1046A000003F23F010030C3242E800310029F3D11F
:1046B000ECE790F84130DBB2212B01D002207047AB
:1046C0008368B3F5805F17D0036A5A1C02621A78B8
:1046D00003685A60C38C9BB2013B9BB2C3844BB945
:1046E0000268D36823F08003D3600268D36843F084
:1046F0004003D360002070470369002BE4D1036AB4
:104700001B880268C3F308035360036A0233036221
:10471000E0E7000010B504460268136923F4405333
:10472000C1680B43136183680269134342691A43EA
:104730000168CB6823F4B05323F00C031343CB6020
:104740000268536923F4407381690B435361026823
:10475000134B9A4220D0FDF7C9FB024602EB8202BE
:1047600002EB820263689B00B2FBF3F20D48A0FBF0
:1047700002314909642303FB11231B013233A0FBDF
:1047800003035B0903F0F00202EB011203F00F03D5
:10479000216813448B6010BDFDF7B8FB0246DDE7CE
:1047A000003801401F85EB512DE9F04383B00546E9
:1047B0000E4617469946DDF828802B681C6836EAB5
:1047C00004040CBF01240024BC4228D1B8F1FF3FEF
:1047D000F3D0FDF76DF8A0EB0900404523D8B8F100
:1047E000000F22D02B68DA6812F0040FE5D0802E7B
:1047F000E3D0402EE1D01A6812F0080FDDD000247B
:1048000001941A6801925B680193019B2846FFF7A7
:1048100022FF08236B6485F84040012000E000205F
:1048200003B0BDE8F0830320FAE70320F8E760B3A4
:1048300010B5044690F8413013B3242384F8413076
:104840002268D36823F40053D3602046FFF762FF49
:104850002268136923F4904313612268536923F09B
:104860002A0353612268D36843F40053D3600020C5
:104870006064202384F8413084F84230606310BDC6
:1048800080F84030FDF732FFD7E7012070472DE96F
:10489000F04182B01E4690F84130DBB2202B56D159
:1048A00004460D469046002955D00AB901204FE034
:1048B00000234364212380F84130FCF7F9FF0746C9
:1048C000A4F82480A4F82680A368B3F5805F02D002
:1048D0004FF0000814E023692BB34FF000080FE0FD
:1048E000202384F84130032032E038F8023B22686C
:1048F000C3F308035360E28C92B2013A92B2E284AD
:10490000E38C9BB293B100963B4600228021204667
:10491000FFF74AFF0028E3D1002DE6D015F8012B60
:1049200023685A60E7E7A8460025E9E700963B467A
:10493000002240212046FFF737FF18B9202384F8D2
:10494000413005E0202384F84130032000E00220BC
:1049500002B0BDE8F0810120FAE7704708B50168B0
:10496000CA6822F04002CA60202280F84120FFF786
:10497000F4FF002008BD7047704708B5406A002367
:10498000C385C384FFF7F8FF08BD704790F8423035
:10499000DBB2222B69D18368B3F5805F4FD0826A86
:1049A000B3F5805F04D0002B56D10369002B53D19F
:1049B00003685B681370836A01338362C38D9BB2A3
:1049C000013B9BB2C385002B51D100B583B0026877
:1049D000D36823F02003D3600268D36823F4807384
:1049E000D3600268536923F001035361202380F8E8
:1049F000423000234363036B012B33D10023036355
:104A0000026802F10C0353E8003F23F010030C325C
:104A100042E800310029F3D103681A6812F0100F40
:104A200006D0002201921A6801925B680193019BF3
:104A3000818DFFF7AAFF002003B05DF804FB026937
:104A4000002AACD1826A03685B68C3F30803138051
:104A5000836A02338362B1E703685B6803F07F0314
:104A60001370A8E7FFF787FFE5E7022070470020F3
:104A70007047000010B582B0044602681368D06821
:104A8000516913F00F0F09D113F0200F0CD010F063
:104A9000200F09D02046FFF779FF16E011F0010141
:104AA00015D110F4907F12D1216B012979D013F028
:104AB000800F03D010F0800F40F0138113F0400FEF
:104AC00003D010F0400F40F0108102B010BD13F081
:104AD000010F06D010F4807F03D0626C42F0010217
:104AE000626413F0040F04D019B1626C42F0020248
:104AF000626413F0020F04D019B1626C42F0040238
:104B0000626413F0080F07D010F0200F00D119B124
:104B1000626C42F008026264626C002AD5D013F025
:104B2000200F02D010F0200F29D123685B6903F019
:104B30004003626C12F0080F00D163B32046FFF708
:104B40008AFD23685B6913F0400F20D0226802F1D0
:104B5000140353E8003F23F04003143242E80031CD
:104B60000029F3D1E36B73B1624A5A63E06BFDF73E
:104B70009BFB0028A9D0E06B436B9847A5E7204634
:104B8000FFF704FFD1E72046FFF7F6FE9DE720463A
:104B9000FFF7F2FE99E72046FFF7EEFE002363647D
:104BA00093E713F0100F82D010F0100F3FF47FAF97
:104BB000002301931368019353680193019B536988
:104BC00013F0400F51D0E26B13685B689BB2002B6F
:104BD0003FF47BAFA18D99427FF677AFE385936970
:104BE000202B37D0226802F10C0353E8003F23F456
:104BF00080730C3242E800310029F3D1226802F1BF
:104C0000140353E8003F23F00103143242E800315B
:104C10000029F3D1226802F1140353E8003F23F086
:104C20004003143242E800310029F3D1202384F8F4
:104C3000423000232363226802F10C0353E8003F53
:104C400023F010030C3242E800310029F3D1E06B6D
:104C5000FDF707FB02236363A18DE38D9BB2C91AA5
:104C600089B22046FFF791FE2FE7A18DE38D9BB21D
:104C7000C91A89B2E38D9BB2002B3FF426AF0029FD
:104C80003FF423AF226802F10C0353E8003F23F402
:104C900090730C3242E800300028F3D1226802F110
:104CA000140353E8003F23F00103143242E80030BC
:104CB0000028F3D1202384F84230002323632268A4
:104CC00002F10C0353E8003F23F010030C3242E8DA
:104CD00000300028F3D1022363632046FFF755FE1E
:104CE000F3E62046FFF7E5FCEFE62046FFF736FE49
:104CF000EBE600BF7B490008FDF7B4FB0B480C490D
:104D00000C4A002302E0D458C4500433C4188C4227
:104D1000F9D3094A094C002301E013600432A2428E
:104D2000FBD300F0A1FFFCF78FFA704700000020D2
:104D3000D801002048850008D8010020F003002099
:104D4000FEE7002B2DE9F04F1D46BBBF03F10043EA
:104D50001D4600232D2389B01446DDE91598DDE9B1
:104D6000126BB8BF144628F0200A149ABAF1460F05
:104D7000137005D0BAF1450F00D10136022300E0CF
:104D8000032307AA049206AACDE90292CDE90036D0
:104D900022462B4601F028F8B8F1670F074619D1D3
:104DA0001BF0010F0ED007EB06080022002320465F
:104DB0002946FBF78DFE08B1CDF81C803022079BF9
:104DC000434521D33846079B179ADB1B136009B074
:104DD000BDE8F08FB8F1470FE2D0BAF1460F00EB13
:104DE0000608E2D10378302B0AD1002200232046A6
:104DF0002946FBF76DFE18B9C6F10106C9F8006037
:104E0000D9F800309844D0E7591C07911A70D6E7BA
:104E1000F7B50029B6BF2D232B234942092902707B
:104E2000437029DD0DF107031D460A27B1FBF7F694
:104E30001A4607FB1614303402F8014C0C46632C5A
:104E4000314603F1FF33F1DC3031941E03F8011CCD
:104E50002346411CAB420AD30DF109039B1AAC4215
:104E600088BF002302330344181A03B0F0BD13F8BF
:104E7000016B01F8016FEDE7302330318370C170B1
:104E8000031DF1E72DE9F04F91B00C46DDF8688085
:104E900016461F46054600F097FE0368184608931D
:104EA000FBF736F900230E93D8F80030099007334A
:104EB00023F0070303F1080294F818A0D4F800B017
:104EC000C8F80020D3E9008929F000430B93CDF8FE
:104ED00028804FF0FF32DDE90A01C4E91289A14BB5
:104EE000FBF728FE70BBDDE90A014FF0FF329D4B56
:104EF000FBF702FE30BB0022002340464946FBF789
:104F0000F1FD10B12D2384F84330974A974BBAF145
:104F1000470F94BF9046984603234FF00009236142
:104F20002BF00403236033462146284600970FAA3E
:104F300000F0DEF9013040F09A804FF0FF3011B000
:104F4000BDE8F08F42464B4640464946FBF7F2FD2E
:104F500048B14B46002BB8BF2D23854AB8BF84F813
:104F60004330844BD3E763685A1C29D1062363601E
:104F700000224BF48063236006920EAACDE904A2BE
:104F80000DAA03920DF13302CDE901326368424666
:104F9000009328464B46FFF7D4FEBAF1670F8046D0
:104FA0000D9915D1CB1C3BDB6368994238DC0E9B15
:104FB000994255DB23682161D80745D54B1C42E057
:104FC0000AF0DF02472AD3D1002BD1D10123CEE74B
:104FD000BAF1470F07D1C81C25DB63688B4222DB7F
:104FE0004FF0670AE3E7BAF1650F1FD8524601395F
:104FF00004F150000D91FFF70BFF0E9A8146131834
:10500000012A236102DC2268D20701D50133236122
:105010009DF83330002B86D02D2384F8433082E76F
:105020004FF0650AE2E74FF0450ADFE7BAF1660F95
:10503000BDD1002963680BDD216113B92268D00757
:1050400002D501330B4423614FF00009A165DFE76E
:1050500013B92268D20701D50233F4E70123F2E73E
:105060000029CCBF0122C1F102021344EBE72368FF
:105070005A0507D42369424631462846B8470130CD
:105080002BD15AE7BAF1650F40F2DC80D4E9120166
:1050900000220023FBF71CFD002833D001233146FA
:1050A0002846354AB84701303FF447AFDDE90D38AF
:1050B000434502DB2368D8070FD5DDE908233146D5
:1050C0002846B84701303FF438AF4FF0000908F1E7
:1050D000FF3804F11A0AC84509DC23689B0700F170
:1050E0000281E0680F9B9842B8BF184627E701236A
:1050F000524631462846B84701303FF41EAF09F109
:105100000109E8E70D9B002B38DC012331462846D6
:10511000194AB84701303FF410AFDDE90D3959EABB
:10512000030302D12368D907D7D5DDE90823314627
:105130002846B84701303FF400AF4FF0000A04F1B1
:105140001A0B0D9B5B42534501DC4B4693E7012351
:105150005A4631462846B84701303FF4EEAE0AF1D0
:10516000010AEEE7FFFFEF7F8B8100088F810008C7
:1051700093810008978100089B810008A36DDDF8EA
:1051800038A05345A8BF5346002B994636DC4FF054
:10519000000B29EAE97904F11A02A36D0A93A3EB43
:1051A00009035B4531DC0D9B9A453ADC2368DA073D
:1051B00037D40D9BAAEB03090A9BAAEB030399457D
:1051C000A8BF9946B9F1000F33DC4FF0000829EA77
:1051D000E97904F11A0B0D9BAAEB0303A3EB090376
:1051E00043457FF77AAF01235A4631462846B847F0
:1051F00001303FF4A2AE08F10108ECE74246314627
:105200002846B8470130C2D197E6012331462846E7
:105210000A92B84701303FF490AE0A9A0BF1010BA5
:10522000BBE73146DDE908232846B8470130C0D145
:1052300083E60A9A4B46314628464244B847013035
:10524000C3D17AE6DDF838A0BAF1010F01DCDB0743
:1052500036D50123424631462846B84701303FF44F
:105260006CAEDDE9082331462846B84701303FF4EB
:1052700064AED4E91201002200230AF1FF3AFBF7E1
:1052800027FCC0B9534608F1010231462846B84709
:1052900001300CD151E601235A4631462846B84721
:1052A00001303FF44AAE08F10108D045F3DB4B462C
:1052B00004F15002E0E64FF0000804F11A0BF4E7A5
:1052C00001234246E1E701234A4631462846B847D2
:1052D00001303FF432AE08F10108E3680F995B1A20
:1052E0004345F0DCFDE64FF0000804F11909F4E74E
:1052F0002DE9F047164698468A680B69074693429F
:10530000B8BF1346336091F843200C46DDF8209077
:105310000AB1013333602368990642BF3368023310
:105320003360256815F0060506D104F1190AE36813
:1053300032689B1AAB422BDC94F843302268003B66
:1053400018BF0123920630D44146384604F1430287
:10535000C847013023D02368226903F00603042BD9
:1053600014BF002533684FF0000608BFE56804F15C
:105370001A0408BFED1A54F8123C08BF25EAE57577
:105380009342C4BF9B1AED18B5421AD1002008E021
:105390000123524641463846C847013003D14FF0F9
:1053A000FF30BDE8F0870135C1E73020E11881F812
:1053B00043005A1C94F845102244023382F84310EB
:1053C000C2E70123224641463846C8470130E6D0AD
:1053D0000136D9E72DE9FF470F7E9146782F8046A9
:1053E0000C469A460C9E01F1430207D8622F0AD858
:1053F000002F00F0DD80582F00F0C38004F142063A
:1054000084F842703AE0A7F16303152BF6D801A1A6
:1054100051F823F06D54000881540008FD53000832
:10542000FD530008FD530008FD5300088154000897
:10543000FD530008FD530008FD530008FD5300080C
:10544000975500080F5500084F550008FD530008F8
:10545000FD530008B9550008FD5300080F5500081A
:10546000FD530008FD5300085755000833681A1D06
:105470001B68326004F1420684F842300123A8E040
:1054800031682368081D30601E0601D50D6803E0F1
:105490005D06FBD5B1F90050002D616878DA2D204A
:1054A000002984F84300A1602DDA0A235D486D428B
:1054B0001646B5FBF3F103FB1157C75D06F8017DF6
:1054C0002F46BB420D46F4D9082B0BD12368DF07CA
:1054D00008D5236961689942DEBF302306F8013C94
:1054E00006F1FF36921B22614B4621464046CDF81D
:1054F00000A003AAFFF7FCFE01306FD14FF0FF3090
:1055000004B0BDE8F08723F004032360CDE72168F1
:105510003368080653F8045B02D4490648BFADB2AD
:105520006F2F336014BF0A2308233E48002184F8FC
:1055300043106668002EA660BADB216821F00401E2
:105540002160002DB4D1002EB2D11646BCE72368ED
:1055500043F0200323607827334884F8457023689C
:1055600031681F0651F8045B02D45F0648BFADB234
:105570003160D90744BF43F0200323601DB11023DD
:10558000D4E72848E9E7236823F020032360F6E7FF
:105590000A232448CDE733682568181D6169306007
:1055A0002E061B6801D5196002E06806FBD519803C
:1055B00000231646236197E7336800211A1D3260E5
:1055C0001E686268304600F076FB08B1801B6060A0
:1055D00063682361002384F8433085E732464946F7
:1055E00040462369D047013088D023689B0714D4F4
:1055F000E068039B9842B8BF184681E70123324612
:1056000049464046D04701303FF478AF0135E36862
:1056100003995B1AAB42F1DCEAE7002504F11906B5
:10562000F5E700BF9D810008AE810008002310B59A
:105630000446C0E90033C0E90433836081814366D6
:10564000C2818361194608225C3000F0B5FA0D4B27
:10565000246263620C4BA3620C4BE3620C4B23632A
:105660000C4B9C4206D003F16802944202D0D03326
:105670009C4205D104F15800BDE8104000F018BB71
:1056800010BD00BF095A00082B5A0008635A0008D1
:10569000875A0008A4020020024A0349034800F088
:1056A00069B800BF10000020C57600082000002067
:1056B00041680C4B10B59942044601D002F002F843
:1056C000A168094B994202D0204601F0FBFFE16836
:1056D000064B994204D02046BDE8104001F0F2BFCD
:1056E00010BD00BFA40200200C03002074030020A2
:1056F00010B50B4B0B4C0C4A20461A6004210022BB
:10570000FFF794FF04F1680001220921FFF78EFFE3
:1057100004F1D0000222BDE810401221FFF786BF3D
:10572000DC030020A402002099560008014800F084
:10573000C0BA00BFE5030020014800F0BBBA00BFBB
:10574000E503002010B50446FFF7F0FF236A1BB104
:10575000BDE81040FFF7F0BF044B2362044B1B6809
:10576000002BF5D1FFF7C4FFF2E700BFB1560008E8
:10577000DC0300202DE9F84307468846144600263E
:10578000D4E90195B9F1010905D52468002CF7D1B8
:105790003046BDE8F883AB89012B07D9B5F90E3047
:1057A000013303D029463846C04706436835E9E748
:1057B0000FB407B5064904AB086853F8042B816899
:1057C000019301F0E7FD03B05DF804EB04B070470E
:1057D0001C000020036A70B505460E4684680BB9AC
:1057E000FFF7B0FF636EDB0705D4A389980502D4E9
:1057F000A06D00F05EFAA389190702D52369002B7A
:1058000035D12146284600F081F980B34FF0FF35AD
:10581000636EDA0705D4A3899B0502D4A06D00F05E
:1058200049FA284670BD002B15DB23685A1C2260FC
:105830001970A36816F8011F013BA3600029F2D17B
:10584000002B16DA22460A21284600F020F9013002
:10585000DCD00A25DCE7A2699A4201DC0A29E4D1FE
:105860002246284600F013F90130E2D1CEE7013E8E
:10587000DFE723685A1C22600A221A70E9E7000059
:10588000024B01461868FFF7A5BF00BF1C000020AF
:10589000B1FA81F252094FF48063520000F000B86F
:1058A0002DE9F7431D46574B04461F680E469046A8
:1058B00027B13B6A13B93846FFF744FFB8F1020F2E
:1058C00006D0B8F1010F00F29A80002DC0F2978047
:1058D000636ED90705D4A3899A0502D4A06D00F0A0
:1058E000E8F92146384601F0EDFE616B41B104F163
:1058F0004403994202D0384601F0A2F800236363C2
:105900000023A3616360A3891B0603D53846216980
:1059100001F096F8A389B8F1020F23F44A6323F04B
:105920000303A38161D001AB6A462146384601F0EA
:10593000F1FEA3891843A0812DBB009D284601F0EC
:10594000C7F80646002852D1DDF80090A94540D19D
:105950004FF0FF35B4F90C3043F00202A28100226F
:10596000A26004F147022260226101226261626E3C
:10597000D60704D4980502D4A06D00F09BF9284600
:1059800003B0BDE8F083002ED8D03B6A13B9384687
:10599000FFF7D8FEB8F1010F08BFA389C4E9046579
:1059A00004BF43F00103A381B4F90C30266013F067
:1059B00008021ED0D90741BF00226D42A260A56136
:1059C00058BFA560626ED20701D49B0513D5002590
:1059D000D5E7484601F07CF806460028B8D0A389F0
:1059E0004D4643F08003A381CFE70025B2E7A946E7
:1059F000F5E7A260E6E7A06D00F05CF9E7E74FF09D
:105A0000FF35BCE71C00002010B50C46B1F90E10A4
:105A100000F000F90028ABBF636DA3891B1823F4C5
:105A20008053ACBF6365A38110BD2DE9F0411F46D3
:105A30008B890546DB050C46164605D50223002258
:105A4000B1F90E1000F0D4F8A389324623F4805344
:105A5000A38128463B46B4F90E10BDE8F04100F0A2
:105A6000EBB810B50C46B1F90E1000F0C1F8431CAC
:105A7000A38915BF606523F4805343F48053A38149
:105A800018BFA38110BDB1F90E1000F0A1B8F8B590
:105A90000E461446054618B1036A0BB9FFF752FECD
:105AA000A369A360A3891A0701D5236943B92146D5
:105AB000284600F02BF818B14FF0FF373846F8BDF4
:105AC00023682269F6B2981A63693746834205DC77
:105AD0002146284601F0F6FD0028EDD1A368013BE0
